{
  "_format": "hh-sol-artifact-1",
  "contractName": "SpookyComplexRewarderHandlerV2",
  "sourceName": "contracts/SpookyComplexRewarderHandlerV2.sol",
  "abi": [
    {
      "inputs": [],
      "stateMutability": "nonpayable",
      "type": "constructor"
    },
    {
      "inputs": [
        {
          "internalType": "address",
          "name": "_rewarder",
          "type": "address"
        },
        {
          "internalType": "address",
          "name": "_vaultToken",
          "type": "address"
        }
      ],
      "name": "getRewardTokenInfo",
      "outputs": [
        {
          "internalType": "address[]",
          "name": "rewardTokens",
          "type": "address[]"
        },
        {
          "internalType": "uint256[]",
          "name": "pendingAmounts",
          "type": "uint256[]"
        },
        {
          "internalType": "uint256[]",
          "name": "rewardRates",
          "type": "uint256[]"
        }
      ],
      "stateMutability": "view",
      "type": "function"
    },
    {
      "inputs": [
        {
          "internalType": "address",
          "name": "_rewarder",
          "type": "address"
        }
      ],
      "name": "getTotalAllocPoint",
      "outputs": [
        {
          "internalType": "uint256",
          "name": "totalAllocPoint",
          "type": "uint256"
        }
      ],
      "stateMutability": "view",
      "type": "function"
    }
  ],
  "bytecode": "0x608060405234801561001057600080fd5b50610c8c806100206000396000f3fe608060405234801561001057600080fd5b50600436106100365760003560e01c806338a9c39c1461003b578063bab5705b1461006b575b600080fd5b610055600480360381019061005091906105b6565b61009d565b604051610062919061089e565b60405180910390f35b610085600480360381019061008091906105e3565b610129565b60405161009493929190610852565b60405180910390f35b6000808290508073ffffffffffffffffffffffffffffffffffffffff166317caf6f16040518163ffffffff1660e01b815260040160206040518083038186803b1580156100e957600080fd5b505afa1580156100fd573d6000803e3d6000fd5b505050506040513d601f19601f8201168201806040525081019061012191906106ee565b915050919050565b606080606060006101398661009d565b905060008573ffffffffffffffffffffffffffffffffffffffff1663f10684546040518163ffffffff1660e01b815260040160206040518083038186803b15801561018357600080fd5b505afa158015610197573d6000803e3d6000fd5b505050506040513d601f19601f820116820180604052508101906101bb91906106ee565b9050600087905060008173ffffffffffffffffffffffffffffffffffffffff16631526fe27846040518263ffffffff1660e01b81526004016101fd919061089e565b60606040518083038186803b15801561021557600080fd5b505afa158015610229573d6000803e3d6000fd5b505050506040513d601f19601f8201168201806040525081019061024d919061069b565b67ffffffffffffffff16925050508173ffffffffffffffffffffffffffffffffffffffff1663d63b3c49848a60006040518463ffffffff1660e01b8152600401610299939291906108b9565b60006040518083038186803b1580156102b157600080fd5b505afa1580156102c5573d6000803e3d6000fd5b505050506040513d6000823e3d601f19601f820116820180604052508101906102ee9190610623565b8097508198505050600167ffffffffffffffff81111561031157610310610ba6565b5b60405190808252806020026020018201604052801561033f5781602001602082028036833780820191505090505b509450600084146103e35783818373ffffffffffffffffffffffffffffffffffffffff16638f10369a6040518163ffffffff1660e01b815260040160206040518083038186803b15801561039257600080fd5b505afa1580156103a6573d6000803e3d6000fd5b505050506040513d601f19601f820116820180604052508101906103ca91906106ee565b6103d49190610a10565b6103de91906109df565b6103e6565b60005b856000815181106103fa576103f9610b77565b5b602002602001018181525050505050509250925092565b600061042461041f84610915565b6108f0565b9050808382526020820190508285602086028201111561044757610446610bda565b5b60005b85811015610477578161045d8882610506565b84526020840193506020830192505060018101905061044a565b5050509392505050565b600061049461048f84610941565b6108f0565b905080838252602082019050828560208602820111156104b7576104b6610bda565b5b60005b858110156104e757816104cd888261058c565b8452602084019350602083019250506001810190506104ba565b5050509392505050565b60008135905061050081610bfa565b92915050565b60008151905061051581610bfa565b92915050565b600082601f8301126105305761052f610bd5565b5b8151610540848260208601610411565b91505092915050565b600082601f83011261055e5761055d610bd5565b5b815161056e848260208601610481565b91505092915050565b60008151905061058681610c11565b92915050565b60008151905061059b81610c28565b92915050565b6000815190506105b081610c3f565b92915050565b6000602082840312156105cc576105cb610be4565b5b60006105da848285016104f1565b91505092915050565b600080604083850312156105fa576105f9610be4565b5b6000610608858286016104f1565b9250506020610619858286016104f1565b9150509250929050565b6000806040838503121561063a57610639610be4565b5b600083015167ffffffffffffffff81111561065857610657610bdf565b5b6106648582860161051b565b925050602083015167ffffffffffffffff81111561068557610684610bdf565b5b61069185828601610549565b9150509250929050565b6000806000606084860312156106b4576106b3610be4565b5b60006106c286828701610577565b93505060206106d3868287016105a1565b92505060406106e4868287016105a1565b9150509250925092565b60006020828403121561070457610703610be4565b5b60006107128482850161058c565b91505092915050565b6000610727838361074b565b60208301905092915050565b600061073f8383610834565b60208301905092915050565b61075481610a6a565b82525050565b61076381610a6a565b82525050565b60006107748261098d565b61077e81856109bd565b93506107898361096d565b8060005b838110156107ba5781516107a1888261071b565b97506107ac836109a3565b92505060018101905061078d565b5085935050505092915050565b60006107d282610998565b6107dc81856109ce565b93506107e78361097d565b8060005b838110156108185781516107ff8882610733565b975061080a836109b0565b9250506001810190506107eb565b5085935050505092915050565b61082e81610ad6565b82525050565b61083d81610ab8565b82525050565b61084c81610ab8565b82525050565b6000606082019050818103600083015261086c8186610769565b9050818103602083015261088081856107c7565b9050818103604083015261089481846107c7565b9050949350505050565b60006020820190506108b36000830184610843565b92915050565b60006060820190506108ce6000830186610843565b6108db602083018561075a565b6108e86040830184610825565b949350505050565b60006108fa61090b565b90506109068282610ae8565b919050565b6000604051905090565b600067ffffffffffffffff8211156109305761092f610ba6565b5b602082029050602081019050919050565b600067ffffffffffffffff82111561095c5761095b610ba6565b5b602082029050602081019050919050565b6000819050602082019050919050565b6000819050602082019050919050565b600081519050919050565b600081519050919050565b6000602082019050919050565b6000602082019050919050565b600082825260208201905092915050565b600082825260208201905092915050565b60006109ea82610ab8565b91506109f583610ab8565b925082610a0557610a04610b48565b5b828204905092915050565b6000610a1b82610ab8565b9150610a2683610ab8565b9250817fffffffffffffffffffffffffffffffffffffffffffffffffffffffffffffffff0483118215151615610a5f57610a5e610b19565b5b828202905092915050565b6000610a7582610a98565b9050919050565b60006fffffffffffffffffffffffffffffffff82169050919050565b600073ffffffffffffffffffffffffffffffffffffffff82169050919050565b6000819050919050565b600067ffffffffffffffff82169050919050565b6000610ae182610ab8565b9050919050565b610af182610be9565b810181811067ffffffffffffffff82111715610b1057610b0f610ba6565b5b80604052505050565b7f4e487b7100000000000000000000000000000000000000000000000000000000600052601160045260246000fd5b7f4e487b7100000000000000000000000000000000000000000000000000000000600052601260045260246000fd5b7f4e487b7100000000000000000000000000000000000000000000000000000000600052603260045260246000fd5b7f4e487b7100000000000000000000000000000000000000000000000000000000600052604160045260246000fd5b600080fd5b600080fd5b600080fd5b600080fd5b6000601f19601f8301169050919050565b610c0381610a6a565b8114610c0e57600080fd5b50565b610c1a81610a7c565b8114610c2557600080fd5b50565b610c3181610ab8565b8114610c3c57600080fd5b50565b610c4881610ac2565b8114610c5357600080fd5b5056fea2646970667358221220bd685174c6fa0bd2c54a4205f4dab9547077e6d75fde6b2388ec5da48ddf9b7d64736f6c63430008070033",
  "linkReferences": {},
  "deployedLinkReferences": {}
}